:020000040800F2
:1000000000A00020C12200081123000811230008CD
:10001000112300081123000811230008000000002C
:10002000000000000000000000000000D5250008CE
:100030001123000800000000D9250008DD25000874
:1000400011230008112300081123000811230008C0
:1000500011230008112300081123000811230008B0
:1000600011230008112300081123000811230008A0
:100070001123000811230008112300081123000890
:1000800099320008112300081123000811230008E9
:1000900071930008112300081123000811230008A0
:1000A0001123000811230008112300081123000860
:1000B0001123000811230008112300081123000850
:1000C0001123000811230008112300081123000840
:1000D0001123000811230008112300081123000830
:1000E0001123000811230008112300081123000820
:1000F0001123000811230008112300081123000810
:1001000000000000000000000000000011230008B3
:1001100011230008112300081123000811230008EF
:1001200011230008112300081123000811230008DF
:100130001123000811230008000000000000000047
:1001400011230008112300081123000800000000FB
:10015000000000000000000000000000000000009F
:100160000000000000000000112300081123000817
:100170001123000800000000000000000000000043
:0801800000000000112300083B
:10080000FFFFFFFFFFFFFFFFFFFFFFFFFFFFFFFFF8
:10081000FFFFFFFFFFFFFFFFFFFFFFFFFFFFFFFFE8
:10082000FFFFFFFFFFFFFFFFFFFFFFFFFFFFFFFFD8
:10083000FFFFFFFFFFFFFFFFFFFFFFFFFFFFFFFFC8
:1017F000FFFFFFFFFFFFFFFFFFFFFFFFFFFFFFAA4E
:1018000010B5054C237833B9044B13B10448AFF33A
:1018100000800123237010BD0002002000000000A2
:101820004CF8000808B5034B1BB103490348AFF35C
:10183000008008BD00000000040200204CF80008F1
:1018400081F0004102E000BF83F0004330B54FEA71
:1018500041044FEA430594EA050F08BF90EA020FDE
:101860001FBF54EA000C55EA020C7FEA645C7FEA71
:10187000655C00F0E2804FEA5454D4EB5555B8BF94
:101880006D420CDD2C4480EA020281EA030382EA05
:10189000000083EA010180EA020281EA0303362D97
:1018A00088BF30BD11F0004F4FEA01314FF4801C6A
:1018B0004CEA113102D0404261EB410113F0004F7C
:1018C0004FEA03334CEA133302D0524263EB430333
:1018D00094EA050F00F0A780A4F10104D5F1200ED1
:1018E0000DDB02FA0EFC22FA05F2801841F100012C
:1018F00003FA0EF2801843FA05F359410EE0A5F100
:1019000020050EF1200E012A03FA0EFC28BF4CF030
:10191000020C43FA05F3C01851EBE37101F00045E6
:1019200007D54FF0000EDCF1000C7EEB00006EEBF3
:101930000101B1F5801F1BD3B1F5001F0CD349087D
:101940005FEA30004FEA3C0C04F101044FEA4452D4
:1019500012F5800F80F09A80BCF1004F08BF5FEA5B
:10196000500C50F1000041EB045141EA050130BD3B
:101970005FEA4C0C404141EB010111F4801FA4F1DE
:101980000104E9D191F0000F04BF01460020B1FA33
:1019900081F308BF2033A3F10B03B3F120020CDA6B
:1019A0000C3208DD02F1140CC2F10C0201FA0CF049
:1019B00021FA02F10CE002F11402D8BFC2F1200CAE
:1019C00001FA02F120FA0CFCDCBF41EA0C01904064
:1019D000E41AA2BF01EB0451294330BD6FEA0404AD
:1019E0001F3C1CDA0C340EDC04F11404C4F1200298
:1019F00020FA04F001FA02F340EA030021FA04F3AA
:101A000045EA030130BDC4F10C04C4F1200220FA00
:101A100002F001FA04F340EA0300294630BD21FA3E
:101A200004F0294630BD94F0000F83F4801306BF04
:101A300081F480110134013D4EE77FEA645C18BFF8
:101A40007FEA655C29D094EA050F08BF90EA020F8F
:101A500005D054EA000C04BF1946104630BD91EA87
:101A6000030F1EBF0021002030BD5FEA545C05D18A
:101A70004000494128BF41F0004130BD14F58004C9
:101A80003CBF01F5801130BD01F0004545F0FE413D
:101A900041F470014FF0000030BD7FEA645C1ABF72
:101AA000194610467FEA655C1CBF0B46024650EAA9
:101AB000013406BF52EA033591EA030F41F40021D5
:101AC00030BD00BF90F0000F04BF0021704730B55B
:101AD0004FF4806404F132044FF000054FF0000130
:101AE00050E700BF90F0000F04BF0021704730B5F1
:101AF0004FF4806404F1320410F0004548BF4042C6
:101B00004FF000013EE700BF42004FEAE2014FEA1A
:101B100031014FEA02701FBF12F07F4393F07F4FF5
:101B200081F06051704732F07F4208BF704793F0F8
:101B30007F4F04BF41F40021704730B54FF460740B
:101B400001F0004521F000411CE700BF50EA01020E
:101B500008BF704730B54FF000050AE050EA0102B7
:101B600008BF704730B511F0004502D5404261EB27
:101B700041014FF4806404F132045FEA915C3FF468
:101B8000D8AE4FF003025FEADC0C18BF03325FEA05
:101B9000DC0C18BF033202EBDC02C2F1200300FAB6
:101BA00003FC20FA02F001FA03FE40EA0E0021FADB
:101BB00002F11444BDE600BF70B54FF0FF0C4CF4C9
:101BC000E06C1CEA11541DBF1CEA135594EA0C0F7B
:101BD00095EA0C0F00F0DEF82C4481EA030621EAB6
:101BE0004C5123EA4C5350EA013518BF52EA0335F1
:101BF00041F4801143F4801338D0A0FB02CE4FF0A3
:101C00000005E1FB02E506F00042E0FB03E54FF0D2
:101C10000006E1FB03569CF0000F18BF4EF0010ECA
:101C2000A4F1FF04B6F5007F64F5407404D25FEAC6
:101C30004E0E6D4146EB060642EAC62141EA555179
:101C40004FEAC52040EA5E504FEACE2EB4F1FD0CBB
:101C500088BFBCF5E06F1ED8BEF1004F08BF5FEA39
:101C6000500E50F1000041EB045170BD06F00046EB
:101C700046EA010140EA020081EA0301B4EB5C0498
:101C8000C2BFD4EB0C0541EA045170BD41F4801190
:101C90004FF0000E013C00F3AB8014F1360FDEBFB5
:101CA000002001F0004170BDC4F10004203C35DA91
:101CB0000C341BDC04F11404C4F1200500FA05F314
:101CC00020FA04F001FA05F240EA020001F00042B5
:101CD00021F0004110EBD37021FA04F642EB06012B
:101CE0005EEA430E08BF20EAD37070BDC4F10C0455
:101CF000C4F1200500FA04F320FA05F001FA04F219
:101D000040EA020001F0004110EBD37041F1000104
:101D10005EEA430E08BF20EAD37070BDC4F120050F
:101D200000FA05F24EEA020E20FA04F301FA05F277
:101D300043EA020321FA04F001F0004121FA04F21F
:101D400020EA020000EBD3705EEA430E08BF20EAEF
:101D5000D37070BD94F0000F0FD101F00046400029
:101D600041EB010111F4801F08BF013CF7D041EAAB
:101D7000060195F0000F18BF704703F000465200AF
:101D800043EB030313F4801F08BF013DF7D043EA80
:101D90000603704794EA0C0F0CEA135518BF95EA36
:101DA0000C0F0CD050EA410618BF52EA4306D1D1BD
:101DB00081EA030101F000414FF0000070BD50EADC
:101DC000410606BF1046194652EA430619D094EA66
:101DD0000C0F02D150EA013613D195EA0C0F05D150
:101DE00052EA03361CBF104619460AD181EA0301A4
:101DF00001F0004141F0FE4141F470014FF000005C
:101E000070BD41F0FE4141F4780170BD70B54FF0F6
:101E1000FF0C4CF4E06C1CEA11541DBF1CEA135576
:101E200094EA0C0F95EA0C0F00F0A7F8A4EB050458
:101E300081EA030E52EA03354FEA013100F088804F
:101E40004FEA03334FF0805545EA131343EA126318
:101E50004FEA022245EA111545EA10654FEA0026CD
:101E60000EF000419D4208BF964244F1FD0404F586
:101E7000407402D25B084FEA3202B61A65EB0305E2
:101E80005B084FEA32024FF480104FF4002CB6EB9F
:101E9000020E75EB030E22BFB61A754640EA0C001F
:101EA0005B084FEA3202B6EB020E75EB030E22BF5F
:101EB000B61A754640EA5C005B084FEA3202B6EBA0
:101EC000020E75EB030E22BFB61A754640EA9C005F
:101ED0005B084FEA3202B6EB020E75EB030E22BF2F
:101EE000B61A754640EADC0055EA060E18D04FEAED
:101EF000051545EA16754FEA06164FEAC30343EA8D
:101F000052734FEAC2025FEA1C1CC0D111F4801F59
:101F10000BD141EA00014FF000004FF0004CB6E752
:101F200011F4801F04BF01430020B4F1FD0C88BFF1
:101F3000BCF5E06F3FF6AFAEB5EB030C04BFB6EBFC
:101F4000020C5FEA500C50F1000041EB045170BDEF
:101F50000EF0004E4EEA113114EB5C04C2BFD4EB1C
:101F60000C0541EA045170BD41F480114FF0000EA0
:101F7000013C90E645EA060E8DE60CEA135594EA1C
:101F80000C0F08BF95EA0C0F3FF43BAF94EA0C0F1F
:101F90000AD150EA01347FF434AF95EA0C0F7FF494
:101FA00025AF104619462CE795EA0C0F06D152EAE8
:101FB00003353FF4FDAE1046194622E750EA4106CC
:101FC00018BF52EA43067FF4C5AE50EA41047FF4DD
:101FD0000DAF52EA43057FF4EBAE12E74FF0FF3C42
:101FE00006E000BF4FF0010C02E000BF4FF0010C13
:101FF0004DF804CD4FEA410C7FEA6C5C4FEA430C8C
:1020000018BF7FEA6C5C1BD001B050EA410C0CBFDA
:1020100052EA430C91EA030F02BF90EA020F00203C
:10202000704710F1000F91EA030F58BF994208BFA3
:1020300090422CBFD8176FEAE37040F00100704760
:102040004FEA410C7FEA6C5C02D150EA013C07D1B7
:102050004FEA430C7FEA6C5CD6D152EA033CD3D002
:102060005DF8040B704700BF8446104662468C46FC
:102070001946634600E000BF01B5FFF7B7FF00282F
:1020800048BF10F1000F01BD4DF808EDFFF7F4FF58
:102090000CBF012000205DF808FB00BF4DF808EDE3
:1020A000FFF7EAFF34BF012000205DF808FB00BF06
:1020B0004DF808EDFFF7E0FF94BF012000205DF828
:1020C00008FB00BF4DF808EDFFF7CEFF94BF0120DD
:1020D00000205DF808FB00BF4DF808EDFFF7C4FFD6
:1020E00034BF012000205DF808FB00BF4FEA410C1F
:1020F0007FEA6C5C02D150EA013C0AD14FEA430C02
:102100007FEA6C5C02D152EA033C02D14FF000003E
:1021100070474FF0010070474A0011D212F50012CB
:1021200011D20DD56FF47873B3EB62520ED44FEA2F
:10213000C12343F0004343EA505323FA02F07047AF
:102140004FF00000704750EA013002D14FF0FF30ED
:1021500070474FF0000070474FEA4102B2F1E04390
:1021600024BFB3F5001CDCF1FE5C0DD901F0004C7E
:102170004FEAC0024CEA5070B2F1004F40EB8300CE
:1021800008BF20F00100704711F0804F21D113F1FA
:102190003872BCBF01F00040704741F480114FEA33
:1021A0005252C2F11802C2F1200C10FA0CF320FABC
:1021B00002F018BF40F001004FEAC1234FEAD323D9
:1021C00003FA0CFC40EA0C0023FA02F34FEA430343
:1021D000CCE77FEA625307D150EA01331EBF4FF0CC
:1021E000FE4040F44000704701F0004040F0FE40E7
:1021F00040F40000704700BF10F8012B11F8013BBC
:10220000012A28BF9A42F7D0D01A7047034613F824
:10221000012B002AFBD1181A01387047000000007A
:1022200001F0FF01102A2BDB10F0070F08D010F887
:10223000013B013A8B422DD010F0070F42B3F6D18B
:10224000F0B441EA012141EA014122F007047FF0A4
:1022500000070023F0E80256083C85EA010586EAFB
:10226000010685FA47F5A3FA87F586FA47F6A5FA37
:1022700087F68EB9EED1F0BC01F0FF0102F0070243
:1022800032B110F8013B013A83EA010313B1F8D1EE
:102290000020704701387047002D06BF35460338CF
:1022A000073815F0010F07D1013015F4807F02BF08
:1022B000013015F4C03F0130F0BC0138704700BF59
:1022C000DFF834D0002103E00C4B5B58435004315D
:1022D0000B480C4B42189A42F6D30B4A02E00023FB
:1022E00042F8043B094B9A42F9D30BF0FBFC0CF08B
:1022F000FBF806F075FFFEE700A00020A42E010801
:102300000000002000020020000200204C570020A6
:10231000FEE700001D4B00B59A6942F001029A6188
:102320009B6983B003F0010301930320019B01F03B
:10233000FDFF002211466FF00B0002F009F80022A9
:1023400011466FF00A0002F003F8002211466FF008
:10235000090001F0FDFF002211466FF0040001F0BA
:10236000F7FF002211466FF0030001F0F1FF002299
:1023700011466FF0010001F0EBFF002211464FF013
:10238000FF3003B05DF804EB01F0E2BF0010024043
:102390000368B3F1A04F00D0704703F1704303F519
:1023A000043330B55A6942F080525A615B6987B094
:1023B00003F08053009303220023022401A94FF06D
:1023C0009040009D0393CDE9014202F0D9FD07B092
:1023D00030BD00BF0268154B9A4200D0704703F52C
:1023E000D63370B5DA6942F00072DA61DB6986B023
:1023F00003F000734FF4C05000930024092303221C
:1024000001A9019002254FF09040CDE90423009EE0
:10241000CDE9025402F0B4FD22462146142001F019
:1024200097FF142001F0CAFF06B070BD00640040A1
:1024300030B503681F4A934289B020D01E4A9342A8
:1024400001D009B030BD4FF4C060032204230390D3
:102450001225012403A94FF09040CDE90623CDE9D0
:10246000045402F08DFD154BDA6942F48002DA6102
:10247000DB6903F480030293029B09B030BDC020E6
:102480000322042303901225012403A90C48CDE95B
:102490000623CDE9045402F073FD084BDA6942F4D7
:1024A0000012DA61DB6903F400130193019B09B0A8
:1024B00030BD00BF005400400058004000100240F2
:1024C0000004004870B503682B4A934288B01FD0BF
:1024D0002A4A934201D008B070BD294B2948DA69D5
:1024E00042F48042DA61DB694FF4704103F48043C7
:1024F00002930322052303910225002403A9029ECF
:10250000CDE90454CDE9062302F03AFD08B070BDD0
:102510001B4B9A6942F480529A619B6903F4805381
:1025200001930024032503A9A02202230526019874
:1025300003924FF09040CDE90434CDE9065602F005
:102540001FFD03A9402212234FF09040CDE9032341
:10255000CDE90545079602F013FD1022012303A9DA
:102560004FF09040CDE905450794CDE9032302F0F3
:1025700007FD08B070BD00BF0030014000380040CA
:1025800000100240000400480268114B9A4200D03B
:10259000704703F5E63370B5DA6942F40032DA6168
:1025A000DB6986B003F400330C2000930322072379
:1025B00001900225012401A94FF09040009ECDE931
:1025C0000254CDE9042302F0DBFC06B070BD00BF6D
:1025D00000440040704700BF704700BF08B500F0DE
:1025E00089FEBDE8084001F01DBF00BF10B586B0F0
:1025F000002300910124062269460194CDE90333AA
:102600000593029201F08CF900B1FEE706B010BD0F
:102610002DE9F043274E284C736987B043F400330B
:1026200000257361032701A94FF090404FF0020984
:1026300002970497CDF804900395059502F0A0FC4D
:10264000736943F4003373614FF0010801A94FF03F
:1026500090400297CDE90475CDF80480CDF80C8048
:1026600002F08EFC7369C4F8208043F080537361DC
:102670007369A56003F0805300934FF0A0414FF4BD
:10268000803208232046009E2561E561656225634E
:10269000E5606563A561A563C4E90012636100F0AC
:1026A000B9FE00B1FEE749462046FFF79FFF07B09D
:1026B000BDE8F08300100240C0410020F8B5074695
:1026C0001648022105460A24FFF790FF002603E082
:1026D000601E10F0FF0410D0284600F0E1FF012139
:1026E000284601F07FF80028F2D1284601F014F9BD
:1026F0000644601E10F0FF04EED1094B9FED097AED
:10270000A3FB0636C6F3CF0607EE906AF8EEE77A2B
:10271000204667EE877AC7ED007AF8BDC0410020F9
:10272000CDCCCCCC14AE653CF8B507462F482DED8A
:10273000068B09EE901A01210546F0EE408A0AEE5A
:10274000102A09EE103AFFF751FF0524002628460B
:1027500000F0A6FF0121284601F044F8002840D0EF
:10276000601E10F0FF04F2D1214BDFED226AA3FBC3
:102770000636C6F38F0607EE906AF8EE677AB7EE74
:10278000008A86EEA77AB8EE4AAA77EE487AF8EE83
:10279000699A8AEE277AC7EE297A17EE900AFFF730
:1027A000B3F941EC100B0BF017FC51EC100BFFF7D9
:1027B000D3FCDFED116A07EE900AB8EE499A78EE85
:1027C000A68A87EE897A2046C8EE287A37EE277ADD
:1027D000C8EE077ABDEC068B77EEE67AC7ED007A95
:1027E000F8BD284601F098F80644B9E7C04100203A
:1027F000CDCCCCCC00F07F453393884338B51F4A0D
:102800004FF008231B881488A5B29BB2DDB94EF6A1
:10281000EE641C1B18BF0124631CDB0203F1006380
:1028200004F1011403F2FF73E4029C4209D222680E
:10283000013203D10FE0256801350CD00434A342E6
:10284000F9D8802038BD83B94EF6EE642C1BB4FA5B
:1028500084F46409E0E705460A4600232146012086
:1028600002F0D8FA18B180B238BDAB2038BDA11C37
:102870002A460023012002F0CDFAF4E700100008F8
:1028800000B5012185B000224FF00823CDE90231C7
:102890000D48CDE900224FF6FF7101E0834209D0D7
:1028A0001A88914203F10403F8D0694601A802F0A6
:1028B00001FB30B9002200234FF00821012002F073
:1028C000A9FA05B05DF804FB0010000810B584B04B
:1028D000002302224FF00824694601A8CDE9003305
:1028E000CDE9024202F0E6FA04B010BD4FF0082331
:1028F000134A1B8812889BB210B42BB192B2DAB97A
:10290000104B114C1A4602E0104B114C1A4612881B
:10291000904203D109E01A88904206D0043BA342BA
:10292000F9D801205DF8044B704733F8023C0B8066
:1029300000205DF8044B7047AB205DF8044B7047F6
:1029400000100008FE17000802100008FE0F000823
:10295000020800082DE9F0476D4E6E4F30804FF0B1
:10296000082184B00C883D880291A4B24EF6EE6234
:1029700000234FF0010C9442ADB2CDE90033CDF805
:102980000CC000F083804FF6FF739C4256D03CB1E0
:10299000FFF776FF00284DD080B204B0BDE8F08785
:1029A000002DF5D09D4245D028B35B4FDFF86C91E8
:1029B0004FF0FF3506F102083B68B9F8002033F804
:1029C0001430934208BF25B2AC42414618464FEA44
:1029D000440A0BD0FFF78AFF012807D03B687188B3
:1029E00033F80A00FFF70AFF0028D6D101343388F4
:1029F000A4B2A342E0D8002200234649012002F0FD
:102A000009FA0028C8D14FF008230122414C039253
:102A1000CDE901034FF6FF7101E0A3420AD01A8805
:102A2000914203F10403F8D0694601A802F042FA8A
:102A30000028B1D1002004B0BDE8F087D5B195429F
:102A400002D0A5E7B9420AD00B889C4201F10401EB
:102A5000F8D0694601A802F02DFA00289CD1002286
:102A600000232C49012002F0D5F90028E2D093E799
:102A7000B942DFD00B889C4201F10401F8D06946CD
:102A800001A802F017FA002886D1D3E78DBB30B336
:102A9000214FDFF88C904FF0FF3406F102083B68BD
:102AA000B9F8002033F81530934208BF2CB2A54284
:102AB000414618464FEA450A0CD0FFF717FF012898
:102AC00008D03B68718833F80A00FFF797FE0028AA
:102AD0007FF463AF01353388ADB2AB42DFD800225B
:102AE00000234FF00821012002F094F90028A1D022
:102AF00052E74FF6FF739D427FF44AAF60460022D3
:102B00000023029702F086F9002893D044E700BF23
:102B10001C020020001000082850002006100008A9
:102B2000060800082DE9F04F87B006460D46FFF76E
:102B300065FE8028044603D0204607B0BDE8F08F2C
:102B40004FF00821304F0B883A8800209BB292B298
:102B5000029083B1002A53D101970F464EF6EE62E0
:102B600000233946012002F055F930B184B22046E5
:102B700007B0BDE8F08F0191F0E729463046FFF736
:102B80003DFE04460028D7D1DFF880A0BAF8003017
:102B90000BB3DFF87CB005460AF10209DBF8003020
:102BA00033F815309E42494618464FEA45080CD086
:102BB000FFF79CFE012808D0DBF80030BAF80210BD
:102BC00033F80800FFF71AFEE0B90135BAF8003013
:102BD000ADB2AB42E2D800230125019A049202A9CA
:102BE00003A80393059502F065F90028BED1394684
:102BF00028460022002302F00DF90028B6D19BE7F9
:102C0000AB2499E7044697E7001000081C02002057
:102C1000285000202DE9F043244D25486B69254CB0
:102C200087B043F480236B6101264023042701A968
:102C30004FF012094FF00308CDE90139CDE90368DF
:102C4000059702F09DF96B69194843F480236B6185
:102C50000DEB070180230193CDE90296CDE90487AE
:102C600002F08EF9EB69E66043F40013EB61EB6967
:102C70001149124A616003F40013009320460023B7
:102C800000992260A360C4E90433C4E906332362D7
:102C900002F05AFB00B1FEE70146204602F02AFD91
:102CA00000B1FEE707B0BDE8F08300BF00100240AE
:102CB0000004004814420020D38D801000540040CE
:102CC00010B582B041EA4001052489B2009404485D
:102CD00002F08CFB003018BF012002B010BD00BF15
:102CE0001442002010B5400082B040F001040520DD
:102CF000134600900A460448A1B202F039FC0030A5
:102D000018BF012002B010BD144200202DE9F04789
:102D10002F4D304C6B6986B043F400336B61002655
:102D200001274FF480734FF0030801A94FF0904042
:102D3000019302960596CDE9037802F021F96B69BB
:102D400043F400336B614FF004094FF4007301A9A1
:102D50004FF0120A4FF09040CDE9013ACDE90378E7
:102D6000CDF8149002F00CF96B6943F400336B61F9
:102D70000DEB09014FF480634FF090400193CDE9D2
:102D800002A7CDE9048902F0FBF8EB69E76043F4A0
:102D90008003EB61EB691049104AA66003F48003DD
:102DA00000932046009B2662C4E90466C4E90666D7
:102DB000C4E9001202F0C8FA00B1FEE7014620465D
:102DC00002F098FC00B1FEE706B0BDE8F08700BF56
:102DD000001002406042002000580040FF5C70007C
:102DE00010B582B041EA4001642489B200940348DE
:102DF00002F0FCFA002002B010BD00BF60420020CB
:102E000010B5400082B040F00104642013460090E9
:102E10000A460348A1B202F0ABFB002002B010BD8D
:102E2000604200202DE9F041264CDFF8A080636964
:102E300043F400336361636988B003F400330093A3
:102E4000009B636943F480236361636903F4802317
:102E50000193019B636943F400236361636903F495
:102E600000230293029B636943F48023636101267C
:102E700000270325404603A92023CDE90336CDE9E9
:102E8000057502F07DF8636943F480236361404671
:102E900003A910230393CDE90476069502F070F898
:102EA0006369094843F40023636103A94FF4804335
:102EB000CDE904760695039302F062F808B0BDE808
:102EC000F08100BF001002400008004800040048E4
:102ED000064B00EB8000800010B41C180A461858FE
:102EE00021895DF8044B02F02DB900BF64F8000899
:102EF00008B500EB8000054B80001A18185811899E
:102F000002F01AF9003018BF012008BD64F800086B
:102F1000F8B5144B144A1A6006464FF482704FF409
:102F2000E064022258604FF480200F46DC603821B4
:102F300000241A619861072201251846D961DA62D6
:102F40009C60C3E908449C62C3E90C445D6103F0E2
:102F50004BFA00B1FEE72A4639463046BDE8F84054
:102F600002F0F0B8AC420020003001402DE9F04101
:102F7000804682B008460F461E4615460BF0D8FA2A
:102F8000314604460022284602F0DCF864203B4625
:102F90002246009041460B4803F09AFA094A074638
:102FA00092F85D30022BFBD031462846012202F018
:102FB000C9F820460BF0C4FAB7FA87F0400902B00E
:102FC000BDE8F081AC4200202DE9F04F01EB030A8F
:102FD00083B0834650461F460E469146BDF8348066
:102FE0000BF0A6FA044650460BF0A2FA52460546EC
:102FF000FF2120460BF0C6FA3246594620460BF018
:10300000B6FA41460C98002202F09CF86420534620
:103010002A46009021460F4803F05AFA0D4A82468C
:1030200092F85D30022BFBD041460C98012202F051
:1030300089F83A46A91948460BF099FA20460BF050
:103040007FFA28460BF07CFABAFA8AF0400903B0FE
:10305000BDE8F08FAC4200202DE9F041104C114842
:10306000114D86B004F118084FF0020C4FF40032F5
:10307000012700266B6913436B6101A90323CDE986
:1030800001C7CDE9036301F07BFF444504D0D4E9D7
:10309000042C54F80C0FEDE706B0BDE8F08100BF3A
:1030A000A0F800080004004800100240064B00EBA6
:1030B0004000800010B41C180A46185821895DF899
:1030C000044B02F03FB800BFA0F800082DE9F04122
:1030D000124C1348134D86B004F13C084FF0000E1B
:1030E0004FF0040C01264FF4003203276B691343A1
:1030F0006B6101A9CDE901C6CDE903E701F040FF0D
:10310000A04507D0A269D4F824E0D4E907C654F852
:10311000140FEBE706B0BDE8F08100BFC4F800086B
:103120000004004800100240064B00EB80008000C5
:1031300010B41C180A46185821895DF8044B02F097
:1031400001B800BFC4F8000810B50C4C002220469E
:10315000042101F0F7FF20460022012101F0F2FFD7
:10316000204600224FF4006101F0ECFF20460022CF
:103170004FF48061BDE8104001F0E4BF0004004856
:1031800070B54FF4806282B0002106462548264D76
:103190000BF0F8F9254B26495A6942F001025A61B1
:1031A0005B69296003F001030193802320214FF420
:1031B0008052EB6028460023019CC5E90612C5E950
:1031C0000133C5E9043301F031F900B1FEE7194CD0
:1031D0001949656603460C2220466C62C4E9016306
:1031E000C4E90333C4E90633C4E9083321606261EA
:1031F00003F07CFD054600B1FEE720464FF48062F7
:10320000084903F0D7FA2A460346294610208DF8CC
:10321000033001F09DF8102002B0BDE8704001F0CD
:10322000CDB800BF84430020844700200010024036
:103230006C000240104300200044004000B583B001
:1032400002A90A2301F8010D0122034803F0D8FC6A
:1032500003B05DF804FB00BF104300200B4B0C498A
:103260001B680A685B68C3F580639A420BD010B490
:10327000084C531CA25C0270C3F3090301200B60CD
:103280005DF8044B70470020704700BF8447002062
:103290002002002084430020014801F01FB900BF34
:1032A00084470020084B094A1B6810B5A2FB032382
:1032B0000446980901F08EF8214600224FF0FF30B5
:1032C00001F046F8002010BD28000020D34D621008
:1032D000074A08B5136843F010031360032001F098
:1032E00025F80020FFF7DEFFFFF714F8002008BDE7
:1032F00000200240024A136801331360704700BF88
:10330000C0470020014B1868704700BFC04700202D
:1033100010B582B00190FFF7F5FF0446FFF7F2FF0A
:10332000019B001B9842F9D302B010BD026838B56A
:10333000936803F00303012B02D00023184638BD25
:103340001168C907F9D5916801F00D01012909D06B
:10335000426C42F010024264826C42F001028264CC
:10336000184638BD9368032143F00203936011604F
:103370000446FFF7C7FF054623689B68DB07DCD5DB
:10338000FFF7C0FF401B0228F6D9636C43F010031F
:103390006364A36C43F00103A3640123CEE700BF81
:1033A000026838B5936803F00303012B0DD09168D0
:1033B000174B19420ED0436C43F010034364836CE7
:1033C00043F001038364012038BD1368D907EED5AB
:1033D000002038BD936843F0010393600446FFF773
:1033E00091FF054604E0FFF78DFF401B022804D83B
:1033F00023681B68DB07F6D5EAE7636C43F010032C
:103400006364A36C43F00103A364012038BD00BFD3
:103410003F00008070B596B000230093002800F0B4
:103420009780436C13F01003044617D1456C002DB0
:1034300000F0918002689168CD007DD59168880088
:103440007AD4616CC90640F19380636C23F0120357
:1034500043F010036364012016B070BD436CDB06BB
:10346000F3D40268936813F00403EED1616C21F485
:10347000817141F00201B2F1A04F616480497DD0B9
:103480008A4279D07F498A4200F0DF807E488242BA
:1034900000F0DC80916801F00301012900F0EA806E
:1034A0007A488168656821F4403129438160D4E914
:1034B0000251A66BE0692943656A012E18BF4FF4DB
:1034C000805341EA4031012D43EA010300F0A98015
:1034D000E16A01290BD06B48824200F0AA8000F516
:1034E0008070824200F0A580206B03430B439168FB
:1034F00011F00C0F0BD1D068616BA56920F48040EE
:10350000490020F0020041EA8531D0600B43D568C4
:103510005F49206929400B430128D36079D0136BA0
:1035200023F00F0313630020A064636C23F00303F4
:1035300043F0010363648FE7636C23F0120343F0ED
:1035400010036364A36C43F00103A364636C7CE722
:10355000012016B070BD8564C0E9135580F8405055
:10356000FEF716FF22689368DE0018D52B4662E747
:10357000002B7FF46AAF75E74FF0A04145480191F9
:10358000916801F0030101293BD0019DA96801F078
:103590000301012985D12968CD0788D481E7204618
:1035A000FFF7C4FE626C12F0100F034622687FF42E
:1035B00042AF00287FF43FAF606C3749374D096850
:1035C00020F4885020F0020040F00200606490680F
:1035D00020F040509060A5FB0101890C906801EB40
:1035E0008101490040F080509060009100990029CD
:1035F0003FF421AF00990139009100990029F9D1D8
:1036000019E71168CE073FF552AF019D002DBDD1DE
:1036100047E7116B236A21F00F01013B0B43136352
:1036200081E7B0B9A16A013943EA414343F48033E9
:103630004EE7B1F5307F17D0B1F5807F17D0B1F5E7
:10364000E07F08BF4FF480714EE70F4901910F48AA
:1036500096E7616C21F0220141F020016164A16CC8
:1036600041F00101A16433E74FF4E0713CE74FF40E
:10367000307139E71168C9073FF519AF10E700BF8E
:1036800000010050000400500005005000070050E9
:1036900007C0F0FF000300502800002083DE1B431A
:1036A00038B503689D6815F0040529D190F84030BD
:1036B000012B044624D0012380F84030FFF770FE30
:1036C00000BB626C236822F4706222F0010242F4B3
:1036D0008072B3F1A04F626417D03E4A934267D024
:1036E0003D4A9268D10612D03C498B420FD0626CA1
:1036F00042F480126264CA68C2F34062A2B10DE073
:10370000022038BD84F8405038BD354A9268626C5A
:1037100022F480126264DA68920105D5626C22F4A8
:10372000405242F480526264626C12F480521CBFB8
:10373000A26C22F00602A26400211C22B3F1A04F69
:1037400084F840101A6018D0224A934220D0224AAE
:103750009168CC060CD0916801F01F01052907D0B3
:10376000926802F01F02092A02D01C4A9342C8D173
:103770009A6842F004029A6038BD194A9168C906F5
:10378000F6D0916801F01F010529F1D09268EFE7AA
:1037900002F500729168CD06EAD0916801F01F0130
:1037A0000529E5D0926802F01F02092AE0D038BD51
:1037B00002F500729268D506A9D0626C4FF0A04164
:1037C00042F480126264CA68C2F34062002AABD03D
:1037D000A4E700BF000100500007005000040050A3
:1037E000000300502DE9F04145690368082D10D011
:1037F000B3F1A04F6CD0444D444C454AAB4208BF96
:103800001446A26812F01F0254D1DC68E50761D4A7
:103810000C25B3F1A04F0BD03B4A934263D03B4AF7
:103820009268D20606D03B4A934203D0D76802E0A2
:10383000374A9268DF680C460646FFF763FD80460C
:10384000326801E0631C25D113682B42FAD0736CF7
:1038500043F400737364D36813F4406F13D1B80456
:1038600011D4136819070ED5936813F0040F736C05
:1038700041D123F480737364736CDB0403D4736CE1
:1038800043F00103736417F480400CBF15600020FF
:10389000BDE8F0812CB1FFF735FDA0EB0800A04298
:1038A000CED9736C002243F00403736486F8402081
:1038B0000320EDE7A26812F4404FA9D0436C002228
:1038C00043F02003436480F840200120BDE8F081EC
:1038D0000F4C96E7436C80F8402043F0200343648C
:1038E0000120BDE8F08102F500729268D406A1D0F3
:1038F0004FF0A0429AE743F020037364B36C43F0A7
:103900000103B364BFE700BF00010050000700508F
:1039100000030050000400500368186C704700BF9B
:10392000F0B4024696B092F840300020012B00908F
:1039300000F0D9801368CC689D6801206F0782F879
:10394000400037D4D1E9005606EB4600042E4FEA7A
:10395000400000F29E801E6B1F27874026EA070664
:1039600005FA00F030431863986810F00C0F4FD13F
:10397000092D05EB4506886800F29A805F694FF0D3
:10398000070C0CFA06FCB04027EA0C0630435861DD
:10399000D1E90467D868C0F3C1004000013E07FACE
:1039A00000F0AF06032E0FD8DFE816F01301080170
:1039B000FD00F200536C43F020035364002382F8AF
:1039C000403016B0F0BC7047186E00F0F8408742E7
:1039D00003D1186E20F000401866586E00F0F840D1
:1039E000874203D1586E20F000405866986E00F070
:1039F000F840874203D1986E20F000409866D86E58
:103A000000F0F840874203D1D86E20F00040D8661D
:103A1000986800F00300012869D00120012C00FA09
:103A200005F068D0D3F8B01021EA0000C3F8B00068
:103A3000B3F1A04F78D0874C87498848A34208BF8C
:103A40000146102D6CD0112D49D0122D1FD1886840
:103A500047021CD4B3F1A04F7E4869D0834200F0E6
:103A6000F0807F48834261D07E4CA34260D098684A
:103A700000F00300012800F0E880102D07D0112D80
:103A800005D0122D03D18B6843F480038B60002096
:103A900094E7092E18D90E2E6FD83C389E6B1F273D
:103AA000874026EA070605FA00F0304398635BE793
:103AB0001E3E9F694FF0070C0CFA06FCB04027EA47
:103AC0000C063043986163E71E385E6B1F27874002
:103AD00026EA070605FA00F03043586344E7886891
:103AE000C001B7D5D3E7022016B0F0BC7047186804
:103AF000C60792D5CBE7D3F8B0608C683043092D68
:103B0000C3F8B0002DD905EB45011B39986907268C
:103B10008E4020EA060004FA01F10143996187E72B
:103B20008868040296D5B2E74C498AE700F58070B0
:103B30000190986800F00300012872D0019CA068F1
:103B400000F00300012873D0102D4DD0112D98D115
:103B5000B3F1A04F9BD18B6843F080738B60002042
:103B60002CE7681C00EB400059690726864084401A
:103B700021EA0601214359615AE75A38DE6B1F27B3
:103B8000874026EA070605FA00F03043D863EBE6E3
:103B9000D3F86CC0344E0CEA0606374347F00047B2
:103BA0003843D86634E7D3F868C02F4E0CEA0606CF
:103BB000374347F000473843986629E7D3F864C095
:103BC000294E0CEA0606374347F00047384358664B
:103BD0001EE7D3F860C0244E0CEA0606374347F0D0
:103BE00000473843186613E7B3F1A04F7FF44FAF97
:103BF0001E4B1F4C1B688868A4FB03439B0C03EB04
:103C000083035B0040F4000088600093009B002B5E
:103C10003FF43DAF009B013B0093009B002BF9D18B
:103C200035E71868C60706D4019C002C87D18BE7BE
:103C30002068C40788D5536C43F0200353640120E7
:103C4000BCE64FF0A040019073E71868C007F2D4BB
:103C50007AE700BF00010050000700500003005049
:103C6000000400500005005000F0FF8328000020F1
:103C700083DE1B4303684869D3F8002242F0010247
:103C80002DE9F041CE69C3F800220122D3F81C428D
:103C90008240D5432C40C3F81C42002E41D1D3F8BA
:103CA0000C72CE68B1F804C00C8803EBC00805EABA
:103CB00007008F68C3F80C024CEA064644EA074442
:103CC000C8F84062C8F84442886920BBD3F80402AF
:103CD0002840C3F804020869A8B9D3F814022840A0
:103CE000C3F81402096A012904D1D3F81C120A434B
:103CF000C3F81C22D3F8002222F00102C3F80022EC
:103D00000020BDE8F0810128ECD1D3F81402104363
:103D1000C3F81402E6E7D3F804021043C3F8040220
:103D2000D9E7012ED0D1D3F80C620F68B1F804E0C6
:103D3000B1F80CC003EBC00446EA02008E68C3F879
:103D40000C024EEA07474CEA0646C4F84072C4F833
:103D50004462B9E7002800F08B8090F8393070B5E4
:103D600003F0FF020546002B77D02B68022285F86E
:103D700039201A6822F002021A601A6842F0010221
:103D80001A60FFF7BFFA064604E0FFF7BBFA801B94
:103D90000A2867D82A68546814F00104F5D05368DB
:103DA000D90755D5AB69012B13680CBF43F08003CD
:103DB00023F080031360EB69012B13680CBF43F001
:103DC000400323F0400313602B6A012B13680CBFE0
:103DD00043F0200323F0200313606B6A012B136868
:103DE0000CBF43F0100323F010031360AB6A012BE8
:103DF00013680CBF43F0080323F008031360EB6A59
:103E0000012B13680CBF43F0040323F00403136079
:103E1000D5E90231D5E904400B43696823430343E4
:103E200001390B43D361136823F001031360FFF7DB
:103E300069FA044604E0FFF765FA001B0A2819D85E
:103E40002B685A68D207F6D4586810F0010018D0D1
:103E5000042385F83930012070BD80F83820FEF742
:103E6000B9FA82E7032085F8384085F8390070BD3B
:103E7000012070470320002385F8390085F8383089
:103E800070BD0123E86385F8393070BD90F8383093
:103E9000012B00F0A28090F839300122222B2DE96D
:103EA000F0470CBF3223122380F83820026880F8D4
:103EB000393093685D0156D500244FEA041C02EBAB
:103EC0000C03076BD3F88051D7E9026E05F00105AA
:103ED000C3F88051002E6BD13D68D3F880614EEA63
:103EE00045553543C3F880510D4606463969D3F828
:103EF0008401DFF8F090DFF8F08001F00F0120F08E
:103F00000F003961C3F88401D3F884010143C3F879
:103F1000841162447969C2F88811B969C2F88C11B8
:103F2000D3F880212E4F42F00102C3F88021FFF721
:103F3000E9F9824632689368F4B938EA030314BF9A
:103F4000012300230BB36B1CF5D02DB1FFF7DAF979
:103F5000A0EB0A00A842EDD90320002386F839001F
:103F600086F838301CE093681C012DD4936813F058
:103F700080532BD00224A0E7012C13D039EA03038D
:103F800014BF01230023002BDDD196F83930322BEA
:103F90000CBF22230123002086F8393086F8380030
:103FA000BDE8F08737EA030314BF01230023C9E704
:103FB0007D6846EA0E06D3F880E146EAC50646EA81
:103FC0000E06C3F880618FE7012476E7042280F8AB
:103FD000383080F839200120E2E70220704700BF26
:103FE00000030008000003100300000490F83930BB
:103FF000012B03D090F83930122B32D190F83830A1
:10400000012B2ED090F83930122B4FF001020CBF4B
:104010003223222310B480F8393080F83820036826
:104020000022C2635C6944F480745C615C6944F49E
:1040300000745C615C6944F480645C615C6944F4B4
:1040400000645C615C6944F400445C6180F8382081
:1040500049B159695DF8044B41F0100110465961AE
:104060007047022070475A695DF8044B42F0020223
:1040700008465A61704700BF704700BFF8B5046832
:10408000436B04EB0115D5F8B02102F004029A60ED
:10409000002A75D1D5F8B021520D1A6004EB011237
:1040A000D5F8B071D5F8B461D5F8B451D2F8B8C12B
:1040B00083F814C0D2F8B8C14FEA1C2C83F815C09D
:1040C000D2F8B8C14FEA1C4C83F816C0D2F8B8C178
:1040D0004FEA1C6C83F817C0D2F8BCC183F818C033
:1040E000D2F8BCC14FEA1C2C83F819C0D2F8BCC16D
:1040F0004FEA1C4C83F81AC0D2F8BC2107F0020723
:1041000006F00F06C5F30725120EC3E90376DD613D
:10411000DA7661BBE36843F02003E360636923F070
:104120000203636190F83930222B14D103685A6975
:1041300022F480725A615A6922F400725A615A69F3
:1041400022F480625A615A6922F400625A615A6903
:1041500022F400425A6190F83930322B0CBF1223FE
:10416000012380F8393005F075FC0020F8BD236983
:1041700043F020032361636923F010036361D1E7F7
:10418000D5F8B021D2085A6088E700BF704700BF59
:1041900003685A69D20710B504460BD59968604A7E
:1041A0008A436BD099685F4A8A4367D099685E4AB0
:1041B0008A4363D05A69900703D5DA68910740F0C3
:1041C00086805A69D20603D51A69900740F0858027
:1041D0009A69D10702D55A69D20547D49A699107DD
:1041E00002D55A69920539D49A69510702D55A699C
:1041F00052052BD49A6912F0700F19D05A69110523
:1042000016D55A69120413D59A6902F07002302A41
:104210007CD06DD9502A66D0602A72D0402A03D152
:10422000E26B42F04002E2639A6922F070029A6106
:10423000E26B02B910BD5A68012142F004025A60D3
:10424000204684F83910FFF7A1FF10BD5A69100409
:10425000D0D5E26B42F00402E263CBE75A69100466
:10426000C2D5E26B42F00202E263BDE75A69100474
:10427000B4D5E26B42F00102E263AFE75A6922F083
:1042800001025A6194F83920122A13D15A6922F492
:1042900080725A615A6922F400725A615A6922F492
:1042A00080625A615A6922F400625A615A6922F4A2
:1042B00000425A6194F83930322B0CBF222301237B
:1042C00084F839302046FFF7D7FE236872E70021D3
:1042D0002046FFF7D3FE236873E701212046FFF74E
:1042E000CDFE236874E7E26B42F08002E2639BE755
:1042F000102A10D0202A97D1E26B42F01002E2631C
:1043000092E7E26B42F48072E2638DE7E26B42F087
:104310002002E26388E7E26B42F00802E26383E78F
:10432000030000040003000800000310074AD368DC
:104330004FF6FF010B40000243F0BF6300F4E06062
:1043400043F400330343D360704700BF00ED00E047
:10435000184BDB68C3F3022330B4C3F10705042D07
:1043600003F1040428BF0425062C19D9033B4FF0A0
:10437000FF349C4022EA04044FF0FF32AA4021EAB5
:10438000020101FA03F2224312010028D2B20ADB31
:1043900000F1604000F5614080F8002330BC7047B8
:1043A00000242346E8E7044B00F00F0003441A768C
:1043B00030BC704700ED00E0FCEC00E000F01F01B5
:1043C00001234009024A8B4042F82030704700BF69
:1043D00000E100E00138B0F1807F0ED2084B10B44C
:1043E000084C5860F02084F8230000220721104672
:1043F0009A6019605DF8044B70470120704700BF58
:1044000010E000E000ED00E0044A136804280CBF4F
:1044100043F0040323F004031360704710E000E04E
:10442000704700BF08B5FFF7FBFF08BD18B390F851
:10443000213030B402460BB980F82030D2E9013582
:10444000D2E903412B4310682343D2E905450B43CE
:1044500001682343D4692B4321F47F51234321F086
:1044600030010B43012400210360084682F82140FB
:10447000916330BC70470120704700BFF0B490F8E2
:104480002040012C26D0D0E900462568012780F87D
:104490002070102E25F001054FF0020780F82170E2
:1044A000256063600BBFA260A160E160E2602368E9
:1044B00043F002032360236843F00403236023686E
:1044C00043F008032360236843F0010323600020C6
:1044D000F0BC70470220F0BC704700BF0368BE4AC2
:1044E000934270B51946044634D9BC4DBC48AB4222
:1044F000066800F0E1801435AB4200F0CC82143540
:10450000AB4200F019811435AB4200F0DB82143568
:10451000AB4200F045831435AB4200F079839342FF
:1045200000F0EE8202F56272934200F09983143239
:10453000934200F0B5831432934200F0CB831432DF
:10454000934200F0EA8332033AD4A5484FF4802224
:104550000068B5E0A14DA348AB4206682DD01435E4
:10456000AB4200F091821435AB4200F0DD8014358F
:10457000AB4200F09F821435AB4200F00983143542
:10458000AB4200F04C83934200F0B282964A9342D1
:1045900000F05F831432934200F07B831432934225
:1045A00000F0A1831432934200F0C083320307D499
:1045B0008C484FF4802200681DE1360740F11881D5
:1045C0001A68160740F1AF811A68834822F0080282
:1045D00083421A60814A40F26681934200F0C582AC
:1045E0001432934200F001831432934200F07A8235
:1045F0001432934200F021831432934200F043833B
:104600001432934200F06083834200F0838302F50A
:104610006772934200F094831432934200F09283C5
:104620001432934200F05E82143293420CBF4FF476
:1046300000424FF400226A48256B4260A26B42F0B0
:1046400001020420A263002284F8210084F82020C3
:10465000002D40F06481614A6148934200682ED089
:10466000624A934200F01B821432934200F06E8340
:104670001432934200F057831432934200F0948234
:104680001432934200F0C8821432934200F03C820C
:1046900002F56272934212D01432934200F0FF810D
:1046A0001432934200F05283143293420CBF4FF401
:1046B00080424FF4802203E0350781D40068042251
:1046C000024240F09A80454A45499342096800F009
:1046D000E8801432934236D01432934200F05A816B
:1046E0001432934200F0DD811432934200F0DF81F6
:1046F0001432934200F0ED811432934200F057825D
:1047000002F56272934200F0CC80143293421AD0C8
:104710001432934200F03E81143293420CBF4FF4A6
:1047200000524FF400320FE036053FF549AF006804
:1047300019464FF480625EE035053FF541AF0068F1
:104740004FF48062BCE72022114214BF01220022F4
:10475000002A3FD01A6891073CD51A68920603D404
:104760001A6822F002021A601B4A1C49934240F266
:1047700014818B4200F0D38114318B4200F01C82F3
:1047800014318B4200F0568214318B4200F0BF810D
:1047900014318B4200F06B8214318B4200F088821E
:1047A000934200F0A88202F56272934200F0B78152
:1047B0001432934200F000821432934200F03A82A5
:1047C0001432934214BF4FF400334FF40053044AA1
:1047D000536011E170BD00BF80000240080002403C
:1047E0000004024000000240080402401C00024095
:1047F00000681946042202424DD01A68550746D572
:104800001A68900603D41A6822F004021A60C74A94
:104810009142C74940F200818B4200F084811431FB
:104820008B4200F0CD8114318B4200F05E81143157
:104830008B4200F0058214318B4200F02782143144
:104840008B4200F04482934200F0618202F5627272
:10485000934200F068811432934200F0B181143227
:10486000934200F0428101F576718B4214BF4FF400
:1048700080214FF48041AF48E26A4160112184F801
:104880002110002A3FF41FAF204690472368A74A13
:1048900093423FF618AFA64AA749934209687FF4AE
:1048A00018AF022250E7934200F04C811432934239
:1048B00000F088811432934200F00E81143293424A
:1048C00000F0C4811432934200F0DA811432934232
:1048D00000F0F481834200F0148202F56772934283
:1048E00000F02C821432934200F02E821432934254
:1048F00000F0F280143293420CBF4FF400424FF4A8
:1049000000228D48256B4260A26B42F00102042018
:10491000A263002284F8210084F820203DB12046C3
:10492000A84723681946814A93423FF694AE804ACD
:104930008148934200683FF45DAF804A934200F0A3
:10494000A8801432934200F0AF801432934200F0FA
:10495000B6801432934200F020811432934200F06A
:1049600063811432934200F0C88002F56272934270
:104970003FF440AF1432934200F08B8014329342E4
:1049800000F09280143293420CBF4FF480424FF4F7
:10499000802230E74FF40072D6E68B4200F0BD80F3
:1049A00014318B4200F0068114318B4200F03F81BC
:1049B00014318B4200F0AE8014318B4200F05A81EA
:1049C00014318B4200F07781934200F097815C4A6A
:1049D000934200F0A2801432934200F0EB80143234
:1049E000934200F024811432934214BF4FF40033F9
:1049F0004FF40053504A5360A26BA36AA263012193
:104A0000002284F8211084F82020002B3FF4E2AE2D
:104A10002046BDE8704018478B4200F08280143178
:104A20008B4200F0CB8014318B4258D014318B4232
:104A300000F0098114318B4200F01F8114318B4248
:104A400000F03F81934200F05F813D4A934268D07D
:104A50001432934200F0B280143293423FD001F5F9
:104A600076718B4214BF4FF480214FF4804132485D
:104A7000E26A4160112184F82110002A3FF40BAF53
:104A800020469047236802E735063FF599AD006858
:104A900019464022AFE635063FF592AD0068402248
:104AA0000EE64FF400524FE64FF48062A3E64FF457
:104AB000003249E632043FF583AD006819464FF4F1
:104AC000804298E635043FF57BAD00684FF48042A4
:104AD000F6E54FF4001237E64FF4006211E74FF4A9
:104AE0008061C4E74FF40062A5E54FF48061C2E63F
:104AF00035013FF565AD006819464FF080627AE6F2
:104B000036013FF55DAD00684FF08062D8E54FF4A7
:104B100000535CE64FF400536CE702236AE702237C
:104B200055E60421A3E70421A5E600BF800002406A
:104B30000800024000040240000002401C00024045
:104B400008040240834E256B08227260A06B40F07F
:104B500001000422A063002084F8212084F82000B2
:104B6000002D7FF4DCAE306845E67B4E256B0822D5
:104B70007260A06B40F001000422A063002084F862
:104B8000212084F82000002D7FF4C9AE306897E51D
:104B900035033FF515AD006819464FF480222AE62B
:104BA00036033FF50DAD00684FF4802288E54FF0E5
:104BB0000072C9E520231DE7202308E6402156E7BF
:104BC000402158E66348256B80224260A26B42F088
:104BD0000102A263042284F82120002284F820200C
:104BE000002D7FF49CAE0068A7E65B48256B802211
:104BF0004260A26B42F00102A263042284F82120E9
:104C0000002284F82020002D7FF489AE006827E57B
:104C100032023FF5D5AC00684FF4800250E5320215
:104C20003FF5CEAC006819464FF48002E3E54FF43F
:104C30000073DFE64FF40073C9E54FF40042FAE475
:104C40004FF4804117E64FF4804110E74FF40042E3
:104C500057E630073FF5B4AC3E4804220068CAE589
:104C600030073FF5ADAC3C4A3C49106827E54FF4AE
:104C70000033ACE54FF40033BCE64FF48021F6E698
:104C80004FF400223DE64FF40022D4E44FF480219B
:104C9000F1E532063FF594AC2E4840220068AAE5C3
:104CA00032063FF58DAC2C4A2D491068402207E5AD
:104CB0004FF400138BE54FF400139BE64FF4000212
:104CC0001FE64FF48001D2E64FF40002B3E44FF444
:104CD0008001D0E536053FF573AC1F4A19461068D0
:104CE0004FF48062ECE430053FF56AAC19484FF4AC
:104CF000806200687FE54FF0007368E54FF0007355
:104D000078E64FF00062FCE54FF08061AFE64FF0CF
:104D10008061B0E54FF000628DE436043FF550ACA1
:104D20000D4A106819464FF48042C9E436043FF535
:104D300047AC08484FF4804200685CE50822E0E593
:104D4000082278E4802276E48022DAE54FF480625B
:104D5000B6E400BF00000240000402400804024024
:104D60001C0402400C4BDB6813F0100305D00B4A07
:104D7000D36943F00203D3611023074AD268520774
:104D800006D50649CA6942F0010243F00403CA612C
:104D9000014AD360704700BF00200240C84700208E
:104DA000054B1A69120605D50449054A59600020C9
:104DB0005A60704701207047002002402301674578
:104DC000AB89EFCD70B50546FEF79CFA104C064650
:104DD00001E06B1C13D1E368D807FAD4E3689906A5
:104DE00044BF2023E3600A4BDA68D20603D4D868B4
:104DF00010F0040002D0FFF7B5FF012070BD25B10F
:104E0000FEF780FA801BA842E5D9032070BD00BFE1
:104E1000002002402DE9F84F244E347E012C41D071
:104E200007469A464CF2503001230D4690463376A1
:104E3000FFF7C8FF90BB012F03D0022F0CBF022742
:104E40000427DFF86C904FF0000B4FEA0B14C4F10D
:104E500020010023F3610AFA01F128FA04F2203C50
:104E60000A432AFA04F4D9F81010224392B241F00E
:104E70000101C9F810104CF250302A80FFF7A2FF50
:104E8000D9F810200BF1010B22F001025FFA8BF12F
:104E90000235C9F8102008B98F42D6D800233376DE
:104EA000BDE8F88F0220BDE8F88F00BFC84700209A
:104EB000002002402DE9F843DFF8C09099F818303F
:104EC000012B56D00368012293420646884689F892
:104ED00018204CF250302FD0FFF774FF78BB4FF002
:104EE000FF33C8F80030D6E9015305EBC3239D42D8
:104EF00025D2214C074607E0D6E9013205F50065C9
:104F000003EBC223AB421BD9C9F81C70236943F0E1
:104F1000020323616561236943F0400323614CF27E
:104F20005030FFF74FFF236923F00203236100286D
:104F3000E2D0C8F8005003E0FFF744FF28B1012099
:104F4000002389F81830BDE8F8830B4CC9F81C0021
:104F5000236943F004032361236943F04003236181
:104F60004CF25030FFF72EFF236923F00403236136
:104F7000E6E70220BDE8F88300200240C847002091
:104F8000D1F800C0BCF1000F00F0C3802DE9F04F54
:104F9000DFF8A0E183B0884600254FF0010909FA47
:104FA00005F212EA0C0670D0D8F8041021F0100AAD
:104FB000BAF1020F70D06F000323D0F800B0BB40ED
:104FC000DB4301F0030403EA0B0BBC400AF1FF3A98
:104FD00044EA0B04BAF1010F04607ED9C468D8F822
:104FE00008202340BA401A43CF00C2604DD54C4A36
:104FF000936943F001039361936925F0030202F181
:10500000804203F0010302F58032019305F00303AF
:10501000019C94689B000F279F40B0F1904F24EAB9
:10502000070410D03F4FB8426FD03F4FB84267D00F
:105030003E4FB8426ED03E4FB8420CBF0427052702
:1050400007FA03F31C439460DEF80030F243CC030C
:1050500054BF13403343CEF80030DEF804308F03E2
:1050600054BF13403343CEF80430DEF80830CC028E
:1050700054BF13403343CEF80830DEF80C308902B9
:1050800054BF13403343CEF80C3001353CFA05F3DE
:1050900085D103B0BDE8F08FEF0800EB870705F07E
:1050A00007043B6AA4004FF00F0A0AFA04FB23EA44
:1050B0000B0AD8F81030A34043EA0A033B626F00A2
:1050C0000323D0F800A0BB40DB4301F0030403EA54
:1050D0000A0ABC4044EA0A040460846804EA030A39
:1050E000D8F80C40BC4044EA0A048460D0F804A01C
:1050F000C1F300142AEA0202AC40144344606DE795
:10510000022707FA03F31C439DE709FA03F31C4344
:1051100099E77047032707FA03F31C4393E700BF9F
:10512000001002400004004800080048000C00483D
:1051300000100048000401400369194214BF012017
:10514000002070470AB9816270478161704700BFD3
:105150002DE9F04180460F4616461D46D8F800401E
:1051600001E06B1C0AD1A06937EA00030CBF0120E3
:105170000020B042F5D00020BDE8F0812DB1FEF74F
:10518000C1F8069BC01AA842E8D90023202288F85B
:10519000412088F8403088F842300320ECE700BF17
:1051A00070B505460C461646286801E0631C22D1FE
:1051B00083699906FAD510222023C261C3618369ED
:1051C0009A0744BF002383628369DB0703D48369A2
:1051D00043F00103836143680F4A042413402021F4
:1051E000002243606C64012085F8411085F840205E
:1051F00085F8422070BD24B1FEF784F8801B8442FC
:10520000D2D20023202285F8412085F8403085F84D
:105210004230032070BD00BF00E800FE70B50546B7
:105220000C46164608E09A69910616D42CB3FEF790
:1052300069F8801BA04220D82B689A69520727D4AE
:105240009A69D006EFD5324621462846FFF7A8FFD7
:1052500000BB2B689A699106E8D52024DC61596867
:105260000D4A11400022596001206A6485F84020EF
:1052700085F8414085F8422070BD6B6C20221343B5
:1052800000216B6485F8401085F84120032070BD33
:10529000002070BD012070BD00E800FE70B505461D
:1052A0000C46164601E0611C11D12B689A699207E1
:1052B0000BD49B69D806F6D5324621462846FFF71F
:1052C0006FFF0028EFD0012070BD002070BD24B119
:1052D000FEF718F8801BA042E7D96B6C2021002252
:1052E0000B436B6485F8402085F84110032085F856
:1052F000422070BD70B505460C4616462B689A696B
:1053000092061ED49B69D90612D424B1FDF7FAFF88
:10531000801BA042F2D96B6C202100220B436B64EE
:1053200085F8402085F84110032085F8422070BDA3
:10533000324621462846FFF733FF0028E5D00120FA
:1053400070BD002070BD00BF002848D090F84130EB
:1053500070B503F0FF020446002B3BD02368E568DC
:10536000242284F84120D4E90120196822F07062D7
:1053700021F0010119601A619A6822F400429A60D2
:1053800020B1012D2DD040F404409860022D04BFBF
:105390004FF400625A60D4E90426D4E906505968F3
:1053A000324342EA0522256A41F00071284341F464
:1053B00000415960DA6018601968002241F001016B
:1053C000202519601046626484F84150226384F8F5
:1053D000422070BD80F84020FDF72AF8BEE701208A
:1053E000704740F400409860D5E700BF2DE9F043D6
:1053F00090F84140202C83B071D190F84040012CAE
:105400006DD09946012380F8403090460E46044600
:10541000FDF778FF054604E0FDF774FF401B1928EF
:1054200061D82768B86910F40040F5D1212384F8C9
:105430004130102384F842306064A4F82A90638DD0
:10544000C4F82480FF2B6063C6F309066BD97A6821
:10545000454946F0FF730A4043F490331343FF225B
:1054600022857B6046F0FF77DFF8FC8047F48037C9
:10547000638D0A999BB22A462046002B3FD0FFF746
:105480000DFF00283ED1636A2168228D581C60629E
:105490001B788B62638D013A013B9BB292B26385AC
:1054A0002285002AE4D1638D9BB2002BE0D00A9BB9
:1054B000009580212046FFF74BFE4FF0FF0C46F091
:1054C000007300283FD1618D226861451FD9536860
:1054D000A4F828C003EA08033B435360C8E702204E
:1054E00003B0BDE8F08300232022032084F841208C
:1054F00084F8403084F8423003B0BDE8F083FFF711
:10550000F9FE10B3636C042B1DD10120E8E7618D17
:10551000506889B200EA08000343C8B243EA004376
:1055200021855360A4E7628D0F48796892B246F0F6
:105530000073014043F40053D0B243EA00430B43ED
:1055400022857B608EE70320CAE72368074D202170
:10555000D9615A682A405A6084F8411084F84000A2
:1055600084F84200BCE700BF009800FC00E800FEA1
:105570002DE9F04390F84140202C83B071D190F890
:105580004040012C6DD09946012380F84030904670
:105590000E460446FDF7B6FE054604E0FDF7B2FEF2
:1055A000401B192861D82768B86910F40040F5D16C
:1055B000222384F84130102384F842306064A4F838
:1055C0002A90638DC4F82480FF2B6063C6F309061C
:1055D0006BD97A68454946F0FF730A4043F4923329
:1055E0001343FF2222857B6046F0FF77DFF8FC80C3
:1055F00047F48037638D0A999BB22A462046002BD8
:105600003FD0FFF70BFE00283ED1636A2268591C89
:10561000526A61621A70228D638D013A013B92B227
:105620009BB222856385002AE4D1638D9BB2002B57
:10563000E0D00A9B009580212046FFF789FD4FF0BE
:10564000FF0C46F0007300283FD1618D2268614550
:105650001FD95368A4F828C003EA08033B435360EA
:10566000C8E7022003B0BDE8F08300232022032016
:1056700084F8412084F8403084F8423003B0BDE81B
:10568000F083FFF737FE10B3636C042B1DD10120AC
:10569000E8E7618D506889B200EA08000343C8B2A8
:1056A00043EA004321855360A4E7628D0F4879687F
:1056B00092B246F00073014043F41053D0B243EA73
:1056C00000430B4322857B608EE70320CAE72368F3
:1056D000074D2021D9615A682A405A6084F8411048
:1056E00084F8400084F84200BCE700BF009800FC4A
:1056F00000E800FE90F84130DBB2202B20D190F87A
:105700004020012A1CD010B40268242480F84140B3
:10571000146824F001041460146824F480541460A4
:105720001468214311601168002441F001011160E7
:1057300080F8404080F8413020465DF8044B7047C7
:1057400002221046704700BF704700BF002841D0BA
:1057500038B50368DA685107044639D1427C02F053
:10576000FF01002A3BD00221617445F25551D4E972
:105770000125E0681960596821F00701114359605B
:105780009A6822F47F6222F00F0240F6FF712A43EA
:1057900088429A6002D11B69834215D0FDF7B2FDA1
:1057A000054605E0FDF7AEFD401BB0F57A7F13D846
:1057B0002368DA685207F5D11A69E16822F47F623A
:1057C00022F00F020A431A6101236374002038BDDE
:1057D000012038BD012070470320607438BD01747A
:1057E000FFF7B2FF2368BEE738B5037C012B2DD04D
:1057F000C168036840F6FF72914208BF4AF6AA22C8
:105800004FF001054FF002040574447408BF1A609C
:105810004CF6CC421A600446FDF774FD054605E0DF
:10582000FDF770FD401BB0F57A7F09D82368DB686F
:1058300013F00703F4D1012223741846627438BDB3
:105840000323002263741846227438BD022038BD39
:1058500038B5037C012B20D001220223027443744B
:105860000446FDF74FFD054605E0FDF74BFD401BE7
:10587000B0F57A7F0CD82268D36813F00203F4D114
:105880004AF6AA200121106018462374617438BDBD
:10589000032000236074237438BD022038BD00BF8C
:1058A0000F4B104A1968104841F0810110B419607B
:1058B00059680E4C0A405A601A6822F0847222F429
:1058C00080321A601968002221F4802119605A6020
:1058D000DA621A639A6004605DF8044B704700BF97
:1058E000001002400CC0FFF82800002000127A00CF
:1058F0002DE9F0430368DD0783B0044642D5C24971
:105900004A6802F00C02042A00F00C814A6802F096
:105910000C02082A00F002816368B3F5803F00F0B2
:105920007981002B00F09081B3F5A02F00F08D82DB
:10593000B54B1A6822F480321A601A6822F4802269
:105940001A60B14DA268EB6A23F00F031343EB62B8
:10595000FDF7D8FC4FF40037064605E0FDF7D2FC12
:10596000801B642800F26C8197FAA7F32A6897FAE3
:10597000A7F3B3FA83F303F01F0322FA03F3DA0762
:10598000ECD52368980740D59F4A516811F00C0F59
:1059900000F0E280516801F00C01082900F0D88085
:1059A0002269002A00F0A581012292FAA2F3B3FA3B
:1059B00083F39B0003F1844303F5840302271A60F9
:1059C000FDF7A0FC904D064605E0FDF79BFC801B13
:1059D000022800F2358197FAA7F32A6897FAA7F30D
:1059E000B3FA83F303F01F0322FA03F3DB07ECD5CA
:1059F0002968F82292FAA2F26369B2FA82F221F0DF
:105A0000F80193400B432B602368190729D5A2693D
:105A1000002A00F0B780012292FAA2F37B497A4E65
:105A2000B3FA83F3022541F82320FDF76BFC074608
:105A300005E0FDF767FCC01B022800F2018195FA22
:105A4000A5F395FAA5F395FAA5F3726A95FAA5F36D
:105A5000B3FA83F303F01F0322FA03F3DA07E8D55E
:105A600023685D0724D5684BDA69D00040F1AF8028
:105A70000025674E3268D10540F1D280E368012BE2
:105A800000F05C81002B00F00781052B5E4B1A6A49
:105A900000F07F8122F001021A621A6A22F00402E9
:105AA0001A6250E125B1584AD36923F08053D3617B
:105AB000E3697BB3544D6A6802F00C02082A5DD09A
:105AC000022B4FF0807300F06C8193FAA3F3B3FACA
:105AD00083F39B0003F1844303F5840300221A60DF
:105AE000FDF710FC2C4606464FF0007505E0FDF76B
:105AF00009FC801B022800F2A38095FAA5F3226816
:105B000095FAA5F3B3FA83F303F01F0322FA03F324
:105B1000DB07ECD4002003B0BDE8F0834A68D00373
:105B20007FF5FAAE4FF4003292FAA2F136490968D5
:105B300092FAA2F2B2FA82F202F01F0221FA02F203
:105B4000D1077FF51FAF6268002A7FF41BAF15E015
:105B50005268D1033FF524AF022292FAA2F12A49FA
:105B6000096892FAA2F2B2FA82F202F01F0221FA56
:105B700002F2D20736D52269012A33D0012003B0C0
:105B8000BDE8F083012393FAA3F320491E4EB3FA34
:105B900083F3022541F82320FDF7B4FB074604E018
:105BA000FDF7B0FBC01B02284AD895FAA5F395FA79
:105BB000A5F395FAA5F3726A95FAA5F3B3FA83F300
:105BC00003F01F0322FA03F3DB07E9D448E7DA699D
:105BD00042F08052DA61DB6903F080530193019B4C
:105BE000012546E7084DF821286891FAA1F162697C
:105BF000B1FA81F18A4020F0F800024319072A60C7
:105C00007FF52FAF03E700BF00100240800442423F
:105C100000700040934A136843F48033136090E6A9
:105C2000326842F480723260FDF76CFB07463368DD
:105C3000DA053FF523AFFDF765FBC01B6428F6D9F5
:105C4000032003B0BDE8F083864D2B6823F4803336
:105C50002B602B6823F480232B60EB6AA26823F06F
:105C60000F031343EB62FDF74DFB4FF4003706467D
:105C700004E0FDF747FB801B6428E1D897FAA7F3FF
:105C80002A6897FAA7F3B3FA83F303F01F0322FA03
:105C900003F3DB07EDD474E6724E336A23F001039D
:105CA0003362336A23F004033362FDF72BFB4FF0BA
:105CB0000209804641F2883713E099FAA9F3726A23
:105CC00099FAA9F3B3FA83F303F01F0322FA03F35B
:105CD000D8077FF5E7AEFDF715FBA0EB0800B8424B
:105CE000AED899FAA9F399FAA9F3002BE5D0326A54
:105CF000E6E7012393FAA3F3B3FA83F39B0003F1DE
:105D0000844303F5840302271A60FDF7FBFA554D1F
:105D1000064604E0FDF7F6FA801B022890D897FAB1
:105D2000A7F32A6897FAA7F3B3FA83F303F01F03E4
:105D300022FA03F3D807EDD4236866E6494A136ACA
:105D400043F001031362FDF7DDFA4FF002098046CC
:105D5000444E41F2883714E099FAA9F3726A99FA2D
:105D6000A9F3B3FA83F303F01F0322FA03F3DB076B
:105D70003FF598AEFDF7C6FAA0EB0800B8423FF633
:105D80005FAF99FAA9F399FAA9F3002BE4D0326A2C
:105D9000E5E742F004021A621A6A42F001021A624E
:105DA000D1E793FAA3F3B3FA83F39B0003F184439F
:105DB00003F5840300221A60FDF7A4FA4FF0007780
:105DC000064605E0FDF79EFA801B02283FF638AF35
:105DD00097FAA7F32A6897FAA7F3B3FA83F303F0C5
:105DE0001F0322FA03F3D907ECD4D4E908136A6835
:105DF0000B4322F4741213436B604FF0807393FAD9
:105E0000A3F3B3FA83F39B0003F1844303F5840304
:105E100001221A60FDF776FA4FF000740646114D24
:105E200005E0FDF76FFA801B02283FF609AF94FAF0
:105E3000A4F32A6894FAA4F3B3FA83F303F01F03DC
:105E400022FA03F3DA07ECD564E603F18043A3F505
:105E50003C331A6842F480221A601A6842F4803295
:105E60001A606EE500100240154810B4446804F052
:105E70000C03082B03D013485DF8044B70474FF414
:105E8000701393FAA3F3B3FA83F304F47012DA40B5
:105E90000D49C36A885C0F2292FAA2F2B2FA82F22A
:105EA00003F00F03D3400B441A7CE3034ABF054BB6
:105EB000064BB3FBF2F35DF8044B03FB00F07047B5
:105EC0000010024000127A0014F9000800093D0099
:105ED000564A136803F007038B420BD2136823F072
:105EE00007030B431360136803F007038B4201D0D1
:105EF0000120704703682DE9F0419C0706D54C4C02
:105F00008568626822F0F0022A4362600446D8077E
:105F10000E4630D56268012A00F08380022A0CBF49
:105F20004FF00073022393FAA3F14149096893FAF1
:105F3000A3F3B3FA83F303F01F0321FA03F3D907A2
:105F400029D53B4D6B6823F0030313436B60FDF7CA
:105F5000D9F96368012B074641F2883850D0022BEB
:105F600005D158E0FDF7CEF9C01B40455CD86B6801
:105F700013F00C0FF6D12D4A136803F00703B34258
:105F80000CD9136823F0070333431360136803F03D
:105F90000703B34202D00120BDE8F08123685A070D
:105FA00006D52349E0684A6822F4E06202434A6069
:105FB0001B0707D51E4A2169536823F4605343EA3F
:105FC000C1035360FFF750FF194B0146F0225B6895
:105FD00092FAA2F2B2FA82F203F0F003D34015482B
:105FE000154AC35C002021FA03F31360FDF75AF948
:105FF0000020BDE8F081FDF785F9C01B404513D8AE
:106000006B6803F00C03042BF5D1B4E7FDF77AF9C4
:10601000C01B404508D86B6803F00C03082BF5D172
:10602000A9E74FF400337EE70320B5E700200240E4
:1060300000100240D01D010828000020014B186804
:10604000704700BF28000020084B4FF4E0625B68F7
:1060500092FAA2F2B2FA82F203F4E063D340044966
:10606000044ACB5C1068D840704700BF0010024063
:10607000E01D010828000020084B4FF460525B68C7
:1060800092FAA2F2B2FA82F203F46053D3400449C6
:10609000044ACB5C1068D840704700BF0010024033
:1060A000E01D0108280000202DE9F04304460068A7
:1060B000C60383B03BD57F4BDA69D50040F1B18090
:1060C0007D4D2A68D0054FF0000640F1BA80794D29
:1060D00061682A6A12F440721DD001F44073934241
:1060E00019D0296A4FF4803321F4407793FAA3F250
:1060F0007248B2FA82F24FF0010C40F822C093FAD3
:10610000A3F3B3FA83F3002240F82320CA072F62D7
:1061100000F1AB806168674A136A23F440730B4354
:1061200013621EB1D36923F08053D3612068C7077F
:1061300006D5604AA168136B23F003030B43136376
:10614000860706D55B4AE168136B23F440330B43A3
:106150001363450706D5574A2169136B23F440237F
:106160000B431363810606D5524AE169136B23F092
:1061700010030B431363820306D54E4AA16B536889
:1061800023F480030B435360430606D5494A216A32
:10619000136B23F020030B431363070706D5454A0F
:1061A0006169136B23F440130B431363C60606D5D2
:1061B000404AA169136B23F440030B431363850525
:1061C00006D53C4AE16A536823F400030B4353604D
:1061D000010606D5374A616AD36A23F4F8730B4384
:1061E000D362C20506D5334AA16AD36A23F4785331
:1061F0000B43D362C30406D52E4A216B136B23F4E1
:1062000080730B43136310F4005007D0294A616B6D
:10621000136B23F400730B431363002003B0BDE83A
:10622000F083DA69244D42F08052DA61DB6903F0D1
:1062300080530193019B2A68D0054FF001063FF57A
:1062400046AF2A6842F480722A60FDF75BF8074681
:106250002B68D9053FF53BAFFDF754F8C01B642808
:10626000F6D9032003B0BDE8F083FDF74BF84FF0FB
:106270000209804641F2883713E099FAA9F36A6A65
:1062800099FAA9F3B3FA83F303F01F0322FA03F395
:10629000DB073FF53FAFFDF735F8A0EB0800B8424C
:1062A000DFD899FAA9F399FAA9F3002BE5D02A6A65
:1062B000E6E700BF001002400070004000044242C8
:1062C000D0E900315A68B1F5827F22F0E0025A60CD
:1062D00014D0826AB2F5005F08D11A684DF6FF71DA
:1062E0000A401A601A6842F400521A600122002320
:1062F00080F85D2080F85C30032070478268B2F53A
:10630000004F02D0B2F5806FE3D11A6822F040024C
:106310001A60DEE72DE9F04182B007460C461546CB
:106320001E46FCF7EFFF80463A6801E0731C10D16F
:1063300090682040A84219D0B4F5C06FF6D1002D66
:10634000F4D1137BDBB28DF807309DF80730731C56
:10635000EED02EB1FCF7D6FFA0EB0800B042E3D39D
:10636000384602B0BDE8F041FFF7AABF002002B0F6
:10637000BDE8F0812DE9F84380460F4616461D46DC
:10638000FCF7C0FF8146D8F8004001E06B1C06D145
:10639000A0683840B042F9D10020BDE8F8832DB1A3
:1063A000FCF7B0FFA0EB0900A842ECD34046BDE8E3
:1063B000F843FFF785BF00BF38B500220D460B46F6
:1063C0004FF4C0510446FFF7A5FF38B902462B46EB
:1063D00080212046FFF7CEFF00B938BD236E43F081
:1063E00020032366032038BD002858D0F8B590F864
:1063F0005D30044603F0FF02002B4BD002232268DD
:1064000084F85D301368E068216B23F04003B0F539
:10641000E06F136036D9B0F5706F50D1D4F828E032
:1064200000293ED1022121634FF0000CD4E904572A
:10643000A668636833432B433B43D4E90676256A59
:1064400033432B4307F400752B4343EA0E03022921
:10645000136003D1136843F400631360636A616BD4
:1064600003433F0C07F004070B433B4343EA0C0391
:10647000E06A53600121002310612366184684F806
:106480005D10F8BD16D00026A66269B1B6464FF47D
:10649000805CCBE780F85C20FCF714F8AEE70120C5
:1064A00070474FF0000CC1E78E46012121634FF485
:1064B000805CBBE7D4F828E00029F6D0F7E7002697
:1064C000A66211B1B646B446B0E78E46AAE700BF51
:1064D0002DE9F043044683B01D460F4690460A9EC0
:1064E000FCF710FF94F85C30012B00F0A08094F8CA
:1064F0005D300122934284F85C200AD002250122FB
:106500000023284684F85D2084F85C3003B0BDE8A1
:10651000F083002F00F08980B8F1000F00F0858033
:10652000002D00F08280A26AC4F84080002305217B
:10653000B2F5005F84F85D1081462366A4F84650EA
:10654000A4F84450A763E587A587236800F0A780D7
:10655000E268B2F5E06F5A686ED8012D40F2F38020
:1065600022F480525A601A68510603D41A6842F025
:1065700040021A6015BBB4F84630002B38D02268B0
:106580009168CD0714D5012B216C40F2B2800B46E7
:10659000D16823F8021BB4F8461023648B1E9BB20B
:1065A000012BA4F8463003D8536843F4805353605A
:1065B000701C40F0A880E58F002DDCD023689A681D
:1065C000910710D5012DA26B40F28A80023D32F86E
:1065D000021BD960ADB2A263E58725B9A36AB3F502
:1065E000005F00F0A080B4F84630002BE0D0C6E792
:1065F000A36AB3F5005F00F0AE8023689D6815F0D4
:10660000100507D0226E4FF6EF7142F002022266AB
:106610000125996031462046FFF7CEFE08B12023C0
:106620002366236E002B3FF46AAF012567E702253E
:10663000284603B0BDE8F08322F480525A601A68FD
:10664000520636D52946B5B90029D1D022689368BB
:10665000DD0709D5216CD36821F8023BB4F8463038
:106660002164013BA4F84630701C55D1E58FB4F885
:106670004610002DE8D02268936898070CD5A36BCC
:10668000013D33F8020BD060ADB2A363E5871DB9BD
:10669000A36AB3F5005F12D00029E5D0D7E71A68E6
:1066A0004DF6FF710A401A601A6842F400521A60EF
:1066B0004EE71A6842F040021A602946C3E71368A1
:1066C0005B0706D453681F0703D5136843F40073B0
:1066D0001360136843F4805313600029C4D0B6E7F5
:1066E000511CA16312781A73E58F013DADB2E587A5
:1066F00073E74B1C2364137B0B70B4F84630013BEB
:10670000A4F8463054E7FCF7FDFDA0EB0900B042C9
:10671000FFF451AF0325F2E6FCF7F4FDA0EB09000E
:10672000B042A3D3F6E723681A68520706D45A6822
:10673000170703D51A6842F400721A601A6842F407
:1067400080521A604FE742F480525A601A68570626
:106750003FF510AF0AE70122114633462046FFF706
:1067600009FED8B9E2682368B2F5706F1BD0216BBF
:106770001A7BADF806200229BDF806207FF43EAF53
:106780000122114633462046FFF7F4FD30B9236855
:106790001A7BADF80620BDF806202FE7236E43F0E4
:1067A00002032366B6E7DA6892B2ADF80620BDF8B8
:1067B000062023E770B590F86A40202C27D141B31A
:1067C0003AB390F86830012B21D004460126406E80
:1067D00084F8686000252226E566134684F86A601E
:1067E0000A460D4E21686265A4F8583086620B4E49
:1067F000C6620B4E06632431FDF740FE22689368A3
:1068000043F040039360284684F8685070BD02202E
:1068100070BD012070BD00BF2968000855680008E0
:1068200065680008704700BF08B50368406A1B68C8
:1068300013F0200309D10268A0F85A309368202190
:1068400023F04003936080F86A10FFF7EBFF08BD68
:10685000704700BF08B5406AFFF7FAFF08BD00BFE8
:10686000704700BF406A08B5202380F8693080F87F
:106870006A30C36E002243F01003C366A0F85A20AA
:10688000A0F85220FFF7ECFF08BD00BF70B504462A
:10689000844823682569A268196866692A43E569FE
:1068A000324321F4164121F00C012A430A431A60B5
:1068B0005968E668A26921F44051314359609968EA
:1068C000266A21F4306132430A4383429A6032D00F
:1068D000754A93420FD0754A934200F0CC80744AB7
:1068E000934200F09280734A934252D0B5F5004F24
:1068F0004BD0012070BD02F5E632126B02F440323B
:10690000B2F5803F61D077D9B2F5003F00F08980C1
:10691000B2F5403FEAD1B5F5004F00F0A3806168C1
:106920004A0802F5F40202F59052B2FBF1F292B27B
:10693000DA60002070BD604A6049126B02F0030209
:10694000B5F5004F8A5C17D0082AD2D801A151F8BA
:1069500022F000BF056A0008B36900081F6900083B
:10696000F3680008D1690008F3680008F3680008BC
:10697000F3680008296A0008082A06D8DFE802F050
:106980006C2B72056F0505055E0000220120DA60A0
:1069900070BD02F5E032126B02F44002B2F5800FD6
:1069A00013D029D9B2F5000F3BD0B2F5400FB2D0C9
:1069B0009CE7FFF761FBD4E9002300EB5300B0FB39
:1069C000F3F080B2D060002070BDB5F5004F46D026
:1069D000FFF74AFAEFE7FFF74FFBD4E900314A0827
:1069E00002EB4000B0FBF1F0C0F3420220F00F00D8
:1069F000024392B20020CAE7002A7FF477AFB5F5D0
:106A0000004F29D0FFF720FBD5E702F5E232126BE9
:106A100002F44012B2F5801FD7D0EDD9B2F5001FB5
:106A20003AD1B5F5004F09D061684A0802F5004235
:106A3000B2FBF1F292B2DA60002070BD62685108D8
:106A400001F58031B1FBF2F1C1F3420221F00F01F7
:106A50000A4392B200209AE7FFF7F6FABDE7FFF784
:106A600003FABAE761684A0802F5740202F51052A7
:106A7000B2FBF1F1E8E702F5E432126B02F44022D6
:106A8000B2F5802FA1D0B7D9B2F5002FC9D0B2F599
:106A9000402F3FF440AF29E7B2F5401F3FF43BAF32
:106AA00024E700BF00380140004400400048004097
:106AB000004C0040005000400010024034F9000833
:106AC000436ADA0710B406D50168846A4A6822F47A
:106AD000003222434A609C0706D50168C46A4A68AE
:106AE00022F4803222434A60590706D50168046BBC
:106AF0004A6822F4802222434A601A0706D50168B8
:106B0000446B4A6822F4004222434A60DC0606D500
:106B10000168846B8A6822F4805222438A60990655
:106B200006D50168C46B8A6822F4005222438A6049
:106B30005A0609D50168046C4A6822F4801222437F
:106B4000B4F5801F4A600BD01B0606D50268816C25
:106B5000536823F400230B4353605DF8044B7047E4
:106B60004A68446C22F4C00222434A60ECE700BF4A
:106B70002DE9F041174606460D461C46FCF7C2FBC0
:106B800080468FB9326801E0611C16D1D36935EABD
:106B90000303F9D10020BDE8F081B4B1FCF7B2FBEA
:106BA000A0EB0800A0420FD8326801E0631CF4D1CA
:106BB000D36935EA0303F9D0ECE734B1FCF7A2FB63
:106BC000A0EB0800A042DDD93268136823F08003EF
:106BD0001360136823F020031360136823F4807399
:106BE00013609368202123F00103002493600320A5
:106BF00086F8691086F8684086F86A10CBE700BF0F
:106C000070B50D4690F86910202930D18DB382B34C
:106C10001E4690F86830012B044628D00023C36636
:106C200001212123A0F8502080F8681080F86930F5
:106C300005E02A781A850135B4F85220EAB1013A04
:106C4000A4F852203346002280212046FFF790FF0F
:106C500088B9A2682368B2F5805FEAD12269002A68
:106C6000E7D135F8022BC2F308021A85E4E70220C7
:106C700070BD012070BD032070BD33464021204609
:106C8000FFF776FF0028F6D1202384F8680084F807
:106C9000693070BD0022036810B5C2661968090723
:106CA00004460BD41B685B0713D42023002084F810
:106CB000693084F8680084F86A3010BD4FF47A7344
:106CC0004FF40011FFF754FF68B923681B685B0796
:106CD000EBD54FF47A7300224FF480012046FFF782
:106CE00047FF0028E1D0032010BD00BF90B390F80B
:106CF000693010B503F0FF02044603B32268242371
:106D000084F86930136823F0010313602046FFF70D
:106D1000BDFD012818D0636AC3B923685A6822F4FC
:106D200090425A609A6822F02A029A601A6842F0E9
:106D3000010220461A60BDE81040FFF7ABBF80F8A3
:106D40006820FBF721FCD9E7012010BD2046FFF7A2
:106D5000B7FEE2E70120704700B583B002AA2030F9
:106D600002F8050D012300211D20FBF7A9FF0222D7
:106D700001A91D20FBF7B6FF9DF805309DF8040022
:106D80001B0943EA001003B05DF804FB30B583B083
:106D9000FCF7B8FA304C0C22002320608DF802205A
:106DA0008DF8033014250A21204603F05DFE0028EB
:106DB000F9D001230DF1020200211D20FBF780FF15
:106DC00001220DF103011D20FBF78CFF9DF803301C
:106DD000013D03F0010301D0002BE4D102AC4FF4DC
:106DE000006324F8043D0021224602231D20FBF706
:106DF00067FF40F20B352246022300211D20ADF82B
:106E00000450FBF75DFF40F20715224602230021E4
:106E10001D20ADF80450FBF753FF0825224602233E
:106E200000211D20ADF80450FBF74AFF4FF6037513
:106E30002246022300211D20ADF80450FBF740FF3D
:106E4000224602234FF4807400211D20ADF8044037
:106E5000FBF736FF03B030BDE847002008B5072B2D
:106E60002DED068BF0EE408A09EE900A0AEE101A1C
:106E700009EE102A46D99FED277ADFED276AC6EE84
:106E8000877AB7EE008A77EEC87AB8EE4AAAF8EEAB
:106E9000699A8AEE277AC7EE297A17EE900AFAF7EE
:106EA00033FE41EC100B07F097F851EC100BFBF799
:106EB00053F99FED1A7ADFED1A6AB8EE499A78EE27
:106EC000878A07EE900A88EE286AC7EE897A77EEFD
:106ED000867A88EE270A30EE470AB4EEE60AF1EE2B
:106EE00010FA09D5BDEC068BDFED0E7A0E4BB0EE35
:106EF000670AC3ED007A08BDBDEC068B0A4B83ED33
:106F0000000A08BD1846FFF727FF07EE900AB8EE03
:106F1000677AB2E70000000000F07F4533938843B2
:106F20000000C8C2000048432402002010B5194BDD
:106F3000194C186088B007230F20032102228DF816
:106F400006008DF804108DF807308DF80520019AA1
:106F50000121452000F044F9104B5A6942F4802287
:106F60005A615B6903F480230293204600224FF4A8
:106F70008071029BFEF7E6F82046012200234FF4C1
:106F8000807403A9CDE90342CDE90533FDF7F8FF8D
:106F900008B010BDEC47002000040048001002407B
:106FA000014B1870704700BFF1470020014B187863
:106FB000704700BFF1470020144B10B41B78144CED
:106FC00022786BB1134B1B6893F8861091B9CAB144
:106FD00001224FF4807110485DF8044BFEF7B2B8FF
:106FE00082B123701A464FF480710B485DF8044B50
:106FF000FEF7A8B893F88530002BE8D012B901232A
:107000002370E5E75DF8044B704700BFF1470020AF
:10701000F0470020EC4700200004004800B583B092
:1070200002AA00239FED060A42F8043D01214520F3
:1070300000F03CF99DED010A03B05DF804FB00BFD0
:107040006F12833B00B583B002AA002342F8043DCF
:107050009FED050A00230121452000F0E7F89DED92
:10706000010A03B05DF804FB3C30003AB7EE007A49
:1070700077EE417A67EEA07AF4EEC07AF1EE10FA7C
:1070800001DD0020704731EE071A61EE200AF4EEB0
:10709000C00AF1EE10FA54BF01200020704700BF73
:1070A00010B5094B02460C4693E8030082B0052355
:1070B00000908DF80410104600216A46FBF700FE90
:1070C000024B1C7002B010BD38F90008F4470020D4
:1070D00030B50E4B1C788C4283B0134602D9002980
:1070E00018BF2146032B0FD81C0102AA084D8DF8AA
:1070F00005103034E95402F8044D03230124002123
